:040000001EEF02F0FD
:08000800046ED8CF05F0E0CF33
:1000100006F00001E9CF0CF0EACF07F0E1CF08F0DD
:10002000E2CF09F0D9CF0AF0DACF0BF0F3CF12F01C
:10003000F4CF13F0FACF14F000C00EF001C00FF0AF
:1000400002C010F003C011F0F2AA2AEF00F0F2B4DF
:100050004BEF00F00EC000F00FC001F010C002F036
:1000600011C003F00CC0E9FF07C0EAFF078E08C00B
:10007000E1FF09C0E2FF0AC0D9FF0BC0DAFF12C0DE
:10008000F3FF13C0F4FF14C0FAFF045006C0E0FFF2
:1000900005C0D8FF1000938081B018D0326A316A51
:1000A000306A2F6A366A356A346A336A3A6A396A5C
:1000B000386A376A3E6A3D6A3C6A3B6A2E6A2D6A34
:1000C0002C6A2B6A2A6A296A286A276A938281B273
:1000D00001D01870D650D7CF03F0830F3F6E000EBB
:1000E000D720D76E3FC0D6FF162AD8B4172A17528A
:1000F00003E11650050802E2176A166A16C000F0FE
:100100001750036E02E100521AE0035003E1010EA2
:10011000005C24E0035003E1020E005C2EE003507B
:1001200003E1030E005C38E0035003E1040E005CC1
:1001300042E0035003E1050E005C4CE059D0190E7B
:100140002724E96E000E2820EA6EEFCF3FF0956A73
:100150003FC08CFF926AFE0E896E4AD0190E2B2486
:10016000E96E000E2C20EA6EEFCF3FF0956A3FC09B
:100170008CFF926AFD0E896E3BD0190E3B24E96E0E
:10018000000E3C20EA6EEFCF3FF0956A3FC08CFF37
:10019000926AFB0E896E2CD0190E3724E96E000E80
:1001A0003820EA6EEFCF3FF0956A3FC08CFF926A2D
:1001B000F70E896E1DD0190E3324E96E000E34201F
:1001C000EA6EEFCF3FF0956A3FC08CFF926AEF0E68
:1001D000896E0ED0190E2F24E96E000E3020EA6EC3
:1001E000EFCF3FF0956A3FC08CFF926ADF0E896EB9
:1001F00018B0A4D0010E2326D8B0242AD8B4252ABA
:10020000D8B4262A23502008D8A498D02452D8A4A1
:1002100095D02552D8A492D02652D8A48FD0266A41
:10022000256A246A236A010E2F26D8B0302AD8B452
:10023000312AD8B4322A325207E1315205E1305224
:1002400003E12F5009080CE2326A316A306A2F6AE2
:10025000010E3326D8B0342AD8B4352AD8B4362A79
:10026000365207E1355205E1345203E133500508B7
:100270000CE2366A356A346A336A010E3726D8B022
:10028000382AD8B4392AD8B43A2A3A5207E139522E
:1002900005E1385203E1375009080CE23A6A396A3D
:1002A000386A376A010E3B26D8B03C2AD8B43D2ABA
:1002B000D8B43E2A3E5207E13D5205E13C5203E1EB
:1002C0003B5005080CE23E6A3D6A3C6A3B6A010EFF
:1002D0002B26D8B02C2AD8B42D2AD8B42E2A2E52A8
:1002E00007E12D5205E12C5203E12B5009080CE2E5
:1002F0002E6A2D6A2C6A2B6A010E2726D8B0282A6E
:10030000D8B4292AD8B42A2A2750020817E128523B
:1003100015E1295213E12A5211E12E5207E12D5223
:1003200005E12C5203E12B50030808E22E6A2D6AE6
:100330002C6A2B6A2A6A296A286A276A938481B4FC
:1003400018D018A216D0010E2726D8B0282AD8B463
:10035000292AD8B42A2A2A5207E1295205E128522B
:1003600003E12750020804E22A6A296A286A276AF8
:100370001892938681B625D018A223D0010E2B2681
:10038000D8B02C2AD8B42D2AD8B42E2A18922750A7
:10039000020817E1285215E1295213E12A5211E10E
:1003A0002E5207E12D5205E12C5203E12B50030898
:1003B00008E22A6A296A286A276A2E6A2D6A2C6A44
:1003C0002B6A938881B80BD018A209D0010E3B2666
:1003D000D8B03C2AD8B43D2AD8B43E2A1892938A81
:1003E00081BA0BD018A209D0010E3726D8B0382A0E
:1003F000D8B4392AD8B43A2A1892938C81BC0BD03D
:1004000018A209D0010E3326D8B0342AD8B4352A20
:10041000D8B4362A1892938481A40DD0938681A6ED
:100420000AD0938881A807D0938A81AA04D0938C9C
:1004300081AC01D01882F2942AEF00F0F86AD09EC5
:10044000078E1768166818901882266A256A246A2B
:10045000236A2A6A296A286A276A2E6A2D6A2C6A00
:10046000090E2B6E326A316A306A2F6A366A356A33
:10047000346A050E336E3A6A396A386A090E376E85
:100480003E6A3D6A3C6A050E3B6EC150C00B0F09C7
:10049000C16E070EB46E3F0E196E060E1A6E5B0E1D
:1004A0001B6E4F0E1C6E660E1D6E6D0E1E6E7D0E4B
:1004B0001F6E070E206E7F0E216E6F0E226EF19E54
:0C04C000E00EF212C50ED56EFFD703004F
:020000040030CA
:0E00000027CC3E1E0087A1000FC00FE00F406E
:00000001FF
;PIC18F4550
;CRC=269C  CREATED="12-jun-25 14:48"
