:040000003AEF01F0E2
:08000800046ED8CF05F0E0CF33
:1000100006F00001E9CF0CF0EACF07F0E1CF08F0DD
:10002000E2CF09F0D9CF0AF0DACF0BF0F3CF12F01C
:10003000F4CF13F0FACF14F000C00EF001C00FF0AF
:1000400002C010F003C011F0F2AA2AEF00F0F2B4DF
:100050004BEF00F00EC000F00FC001F010C002F036
:1000600011C003F00CC0E9FF07C0EAFF078E08C00B
:10007000E1FF09C0E2FF0AC0D9FF0BC0DAFF12C0DE
:10008000F3FF13C0F4FF14C0FAFF045006C0E0FFF2
:1000900005C0D8FF1000938081B010D02A6A296A69
:1000A000286A276A2E6A2D6A2C6A2B6A326A316A9C
:1000B000306A2F6A366A356A346A336A938281B24B
:1000C00001D01870D650D7CF03F0830F376E000ED3
:1000D000D720D76E37C0D6FF162AD8B4172A1752A2
:1000E00003E11650040803E2176A010E166E16C0EB
:1000F00000F01750036E03E1010E005C10E00350A6
:1001000003E1020E005C1AE0035003E1030E005C01
:1001100024E0035003E1040E005C2EE03BD0190EF6
:100120003324E96E000E3420EA6EEFCF37F0956A83
:1001300037C08CFF926AFB0E896E2CD0190E2F24CB
:10014000E96E000E3020EA6EEFCF37F0956A37C0C7
:100150008CFF926AF70E896E1DD0190E2B24E96E62
:10016000000E2C20EA6EEFCF37F0956A37C08CFF77
:10017000926AEF0E896E0ED0190E2724E96E000EDA
:100180002820EA6EEFCF37F0956A37C08CFF926A6D
:10019000DF0E896E18B06BD0010E2326D8B0242A4A
:1001A000D8B4252AD8B4262A23502008D8A45FD052
:1001B0002452D8A45CD025525AE1265258E1266A2E
:1001C000256A246A236A010E2726D8B0282AD8B4C3
:1001D000292AD8B42A2A2A5207E1295205E12852AD
:1001E00003E1275009080CE22A6A296A286A276A6B
:1001F000010E2B26D8B02C2AD8B42D2AD8B42E2AFA
:100200002E5207E12D5205E12C5203E12B50050837
:100210000CE22E6A2D6A2C6A2B6A010E2F26D8B0AA
:10022000302AD8B4312AD8B4322A325207E13152B6
:1002300005E1305203E12F5009080CE2326A316ABD
:10024000306A2F6A010E3326D8B0342AD8B4352A42
:10025000D8B4362A365207E1355205E1345203E16B
:100260003350050804E2366A356A346A336AF29418
:100270002AEF00F0F86AD09E078E176A166A189067
:10028000266A256A246A236A2A6A296A286A276AEA
:100290002E6A2D6A2C6A050E2B6E326A316A306A1C
:1002A000090E2F6E366A356A346A050E336EC150F8
:1002B000C00B0F09C16E070EB46E3F0E196E060E0D
:1002C0001A6E5B0E1B6E4F0E1C6E660E1D6E6D0E53
:1002D0001E6E7D0E1F6E070E206E7F0E216E6F0E3E
:1002E000226EF19EE00EF212C50ED56EFFD703000E
:020000040030CA
:0E00000027CC3E1E0087A1000FC00FE00F406E
:00000001FF
;PIC18F4550
;CRC=4053  CREATED="01-ago-24 20:02"
